:100000006F0040016F00802B4800000000000000DE
:1000100073002030970100009381414217010100D5
:10002000130141FE930280431303804363F862008F
:1000300023A0020093824200E3EC62FEEF00003551
:100040009702000083A282FC67800200000000008B
:100050000000000000000000130101FE232E8100BB
:10006000130401022326A4FE8327C4FE83C70700CE
:1000700093F7F70F138507000324C1011301010251
:1000800067800000130101FE232E8100130401028A
:100090002326A4FE93870500A305F4FE8327C4FE50
:1000A0000347B4FE2380E700130000000324C101CE
:1000B0001301010267800000130101FE232E81005D
:1000C000130401022326A4FE8327C4FE83A707008E
:1000D000138507000324C10113010102678000009A
:1000E000130101FE232E8100130401022326A4FE26
:1000F0002324B4FE8327C4FE032784FE23A0E70045
:10010000130000000324C1011301010267800000F5
:10011000130101FE232E1100232C81001304010280
:1001200093070500A307F4FE8347F4FE93850700B9
:1001300037050082EFF01FF513000000B7070081BC
:1001400013854700EFF05FF79307050093F727004B
:10015000E38607FE93052000B7070081138547005B
:10016000EFF01FF8130000008320C1010324810178
:100170001301010267800000130101FE232E11000C
:10018000232C8100130401022326A4FE6F00000229
:100190008327C4FE83C7070013850700EFF05FF7CE
:1001A0008327C4FE938717002326F4FE8327C4FE0B
:1001B00083C70700E39E07FC130000001300000044
:1001C0008320C10103248101130101026780000023
:1001D000130101FF232611002324810013040101D0
:1001E00013000000B707008113854700EFF0DFEC34
:1001F0009307050093F71700E38607FE93051000A9
:10020000B707008113854700EFF09FED37050082A7
:10021000EFF09FE493070500138507008320C100DA
:10022000032481001301010167800000130101FF15
:100230002326110023248100130401018347803FFA
:10024000638A07008327C03F13971700232EE03EE1
:100250006F0000018327C03F13D71700232EE03E15
:100260000327C03FB78700006308F7000327C03F9C
:10027000930710006312F7028347803FB337F00003
:1002800093F7F70F93C7170093F7F70F93F717003C
:1002900013F7F70F230CE03E8327C03F9385070039
:1002A00037050080EFF0DFE3130000008320C1007A
:1002B000032481001301010167800000130101FB89
:1002C00023261104232451042322610423207104D2
:1002D000232E8102232CA102232AB1022328C1024A
:1002E0002326D1022324E1022322F1022320010349
:1002F000232E1101232CC101232AD1012328E1013E
:100300002326F10113040105B70700811385470077
:10031000EFF09FDA9307050093F747006380070229
:1003200093054000B707008113854700EFF05FDBBE
:10033000EFF0DFEF13050040EFF01FE413000000C3
:100340008320C10483228104032341048323010405
:100350000324C103032581038325410303260103ED
:100360008326C10203278102832741020328010259
:100370008328C101032E8101832E4101032F010136
:10038000832FC1001301010573002030130101FF09
:10039000232611002324810013040101930540004A
:1003A00037050081EFF0DFD3B7E7F5059385F70F49
:1003B00037050083EFF0DFD213058040EFF0DFDB7D
:1003C00013000000B707008113854700EFF0DFCE70
:1003D0009307050093F71700E38607FE1305004314
:1003E000EFF09FD9130000008320C1000324810097
:0803F000130101016780000008
:0803F8000100000001000000FB
:100400005469636B21200000507265737320612072
:100410006B657920746F207465726D696E617465A7
:10042000207468652070726F6772616D2E0A00001B
:070430000A427965210A0070
:00000001FF
